:020000040800F2
:10000000C848002019030008FF230008CD2200087B
:10001000FD230008050D0008A12B000800000000CA
:10002000000000000000000000000000590200086D
:10003000070D000800000000B5020008C5240008F4
:1000400033030008330300083303000833030008B8
:1000500033030008330300083303000833030008A8
:100060003303000833030008330300083303000898
:100070003303000833030008330300083303000888
:1000800033030008330300083303000800000000B6
:100090000000000000000000000000003303000822
:1000A00033030008330300089925000833030008D0
:1000B0003303000833030008330300083303000848
:1000C0003303000833030008330300083303000838
:1000D000330300087D2B0008892B00080000000076
:1000E000090D000833030008330300080000000076
:1000F00000000000000000000000000033030008C2
:100100000000000033030008330300083303000835
:1001100000000000000000000000000000000000DF
:1001200033030008330300083303000833030008D7
:100130003303000800000000000000000000000081
:100140000000000000000000000000003303000871
:10015000330300083303000833030008952B00081D
:100160003303000833030008000000000000000013
:10017000000000000000000000000000000000007F
:100180000000000033030008000000000000000031
:100190003303000800F002F800F04EF80AA090E8DF
:1001A000000C82448344AAF10107DA4501D100F032
:1001B00043F8AFF2090EBAE80F0013F0010F18BFB1
:1001C000FB1A43F001031847D0570000F057000016
:1001D000103A24BF78C878C1FAD8520724BF30C873
:1001E00030C144BF04680C60704700000023002445
:1001F00000250026103A28BF78C1FBD8520728BF37
:1002000030C148BF0B607047782900F0878100201B
:1002100070471FB505F02CFA9DE8030000F09CFA2A
:1002200000F02CFC04000020002104F0A1FC401C84
:1002300060601FBD10B510BD00F0FBFB1146FFF75D
:10024000E8FF03F039FC00F02BFC03B4FFF7F2FFEA
:1002500003BC00F05BFC00002C4B19680868B0E898
:10026000F04F80F30988BFF36F8F4FF0000080F3E9
:10027000118870470000000008480068006880F39B
:1002800008884FF0000080F3148862B661B6BFF3AF
:100290004F8FBFF36F8F00DF00BF00BF08ED00E09E
:1002A000DFF80C00016841F470010160704700BF85
:1002B00088ED00E0EFF30980BFF36F8F134B1A68EE
:1002C0001EF0100F08BF20ED108A20E9F04F1060DB
:1002D00009B44FF0500080F31188BFF34F8FBFF384
:1002E0006F8F04F097F94FF0000080F3118809BC7C
:1002F00019680868B0E8F04F1EF0100F08BFB0ECA6
:10030000108A80F30988BFF36F8F70474800002080
:10031000EFF305807047000009488047094800470F
:10032000FEE7FEE7FEE7FEE7FEE7FEE7FEE7FEE7A5
:10033000FEE7FEE704480549054A064B7047000002
:100340008925000895010008C8420020C8480020FF
:10035000C8440020C844002070B5064600F0DCF90F
:10036000056806F10B0020F00704B4429CBF002092
:1003700070BD2B466A68BAB11068A04210D304F170
:10038000080188423CBF5068586007D35168101973
:1003900041601168091B016058601460101D70BD38
:1003A00013465268002AE7D12146284600F0C0F9DA
:1003B0000028DED170BD70B50446051F00F0ACF911
:1003C0000068002C14BF446870BD002C18BFAC42FC
:1003D0003CBF20466468F8D301680A18AA4218BFD7
:1003E000456003D12A680546114401602868411917
:1003F000A1421CBF6C6070BD6168696021680844DF
:10040000286070BD53EA020C00F069802DE9F04BC2
:100410004FF00006002B1FBFB3FA83F503FA05F473
:1004200024FA05F65E4012BF1643B2FA82F502FACC
:1004300005F4C5F120051EBF22FA05FC44EA0C04B0
:10044000203556EA044C4FEA144418BF641C4FF0A0
:1004500000084FF00009904271EB030C39D30029DA
:1004600019BFB1FA81F701FA07F6B0FA80F700FA7E
:1004700007F6C7F120071EBF20FA07FC46EA0C0664
:100480002037B6FBF4FCA7EB0507103F07F01F0B66
:10049000CBF120060CFA0BFB2CFA06F644BFB34650
:1004A0000026202FA4BF5E464FF0000B5BEA060C2F
:1004B00008BF4FF0010B19EB0B09ABFB027C48EBBB
:1004C0000608C01B06FB02CC0BFB03CC71EB0C0136
:1004D000C1E70B46024641464846BDE8F08B13B5DE
:1004E0004FF000004FF00001AFF30080BDE81C406A
:1004F000704700000FB41CB5074B06AA7B44694641
:100500000090059800F0C7F90020694600F0D6F980
:100510001CBC5DF814FB0000BD03000070B5044670
:100520000D4621461068AFF300802188090502D5E9
:100530000F4A7A4402E00E4A7A440E32002104F156
:10054000240305E000F00F060009965D5E54491C87
:100550000028F7D120780023000704D5702D02D0A1
:1005600009B1022311322046BDE8704000F035B9D0
:100570002E5300002DE9F0410F4604460020DFF81D
:100580008480F84420622046E168884790B325289B
:1005900006D0D4E901219047206A401C2062F2E78E
:1005A00000252046E16888472028064608DB312ED2
:1005B00006D208EB060010F8200C08B10543F0E75E
:1005C000A80701D525F00405A6B1A6F14100192818
:1005D00002D8203645F400653A463146204625606B
:1005E000FFF712FE48B1012805D0FF1D27F00707CD
:1005F0000837C8E703E03F1DC5E73046C9E7206A72
:10060000BDE8F0810653000070B5064600F088F89A
:100610000468054630460A22002100F054F92C6097
:1006200070BD10B5431C02E010F8011B71B18107C9
:10063000FAD14FF0013202C88C1A8C4314EAC2116D
:10064000F9D0C01A0A0603D0C01E10BDC01A10BDD2
:100650000A0401D0801E10BD0902FCD0401E10BD4E
:1006600010B5203AC0F00B80B1E81850203AA0E84D
:100670001850B1E81850A0E81850BFF4F5AF5FEA81
:10068000027C24BFB1E81850A0E8185044BF18C934
:1006900018C0BDE810405FEA827C24BF51F8043BDB
:1006A00040F8043B08BF7047D20728BF31F8023B2F
:1006B00048BF11F8012B28BF20F8023B48BF00F8C3
:1006C000012B70474FF0000200B513469446964642
:1006D000203922BFA0E80C50A0E80C50B1F1200155
:1006E000BFF4F7AF090728BFA0E80C5048BF0CC003
:1006F0005DF804EB890028BF40F8042B08BF704761
:1007000048BF20F8022B11F0804F18BF00F8012BD2
:10071000704770477047704700487047704200202C
:100720000048704768420020704770477047704724
:1007300038B504460A4600206946AFF30080002819
:1007400008BF38BD02460099204600F001F901209B
:1007500038BD012000F065B9F8B5AFF3008005465B
:1007600000200C46102000BF0646A819A0420DD953
:10077000324669460020AFF30080070008BF00F052
:1007800050F90098A04218BF0546C419FFF7C4FFEE
:1007900005600746F01D20F007004619284600F0C6
:1007A0000AF8B44208BFF8BDA21B31463868BDE85C
:1007B000F84000F0CDB800210160C0E90110704799
:1007C0001020704710B5FFF7ABFF006810BD10B5E3
:1007D0000446FFF7A5FF046010BD2DE9F0470D4664
:1007E00099469246044600F124080168880604D51B
:1007F000E06921F01001216000E00120A84201DD44
:10080000471B00E00027A1697A1902EB0900081ACA
:10081000A0612078C00602D42046AFF300800026F5
:1008200008E0D4E901211AF806009047206A401C2C
:10083000761C20624E45F4DB2078C0060AD520469F
:10084000AFF3008006E0D4E9012130209047206A10
:10085000401C2062381EA7F10107F4DC07E0D4E950
:10086000012118F805009047206A401C2062281ECC
:10087000A5F10105F3DC2046AFF3008020780006E7
:1008800002D50220BDE8F0870120FBE701694A1C80
:1008900002610878704700B58FB0CDE901310021C1
:1008A000059105497944CDE9031011466846FFF7E3
:1008B00061FE0FB000BD0000E5FFFFFF0A6802F80F
:1008C000010B0A6070472DE9F04791460F468046BC
:1008D0000446002614F8015B2DB100F031F80068E1
:1008E000405DC007F6D12B2D02D02D2D18D0641EEF
:1008F0004A463946204600F045F827B13968A142FA
:1009000001D1C7F800804FF0020471050BD54042B9
:10091000002803DDFFF704FF0460A007BDE8F087AF
:1009200046F48066E4E70028F8DAFFF7F9FE046091
:100930006FF00040F2E70000004870476842002076
:1009400010B500F09BF8001D10BD00BF254200004F
:10095000034640688C46002818BF88423CBF0346C7
:100960004068F8D318681844884207D00CF1030097
:1009700020F00700001D411A521A0146081D0A60A6
:10098000FFF719BD2DE9F05F824615468B4600271B
:100990000AF10104B9460078302801D09DB113E076
:1009A00014F8010B0127782803D0582801D045B14D
:1009B0000AE00DB1102D07D1002714F8010B102506
:1009C00002E0082500E00A250026B0460EE005FBFF
:1009D000080005FB06F101271FFA80F801EB10461D
:1009E000B6F5803F00D3B94614F8010B294600F054
:1009F00049F80028EBDABBF1000F05D00FB1641EF7
:100A000000E05446CBF80040B9F1000F06D0FFF7E4
:100A100087FE02210160C81EBDE8F09F48EA06403B
:100A2000FAE710B500F04AF8BDE8104000F041B810
:100A300070477546FFF780FFAE460500694653468E
:100A400020F00700854618B020B5FFF773FCBDE81D
:100A500020404FF000064FF000074FF000084FF025
:100A6000000B21F00701AC46ACE8C009ACE8C009B6
:100A7000ACE8C009ACE8C0098D4670470048704733
:100A8000884200203A2800D2303820F02002412A43
:100A900001D3A2F13700884201D34FF0FF307047F5
:100AA00010B50446AFF300802046BDE81040FFF7C4
:100AB000CCBB002801D000F029B8704710B5012840
:100AC00005D0002103A000F027F8012010BD09A1E6
:100AD000F8E7000053494752544D454D3A204F75B1
:100AE00074206F662068656170206D656D6F727926
:100AF000000000003A2048656170206D656D6F72DE
:100B00007920636F727275707465640001491820F2
:100B1000ABBEFEE72600020070B505460C460A2073
:100B200000E06D1C00F052F835B128780028F8D1AB
:100B300002E0641C00F04AF814B120780028F8D1D3
:100B4000BDE870400A2000F041B800004FF0013CC1
:100B500050F8042B51F8043B9A4221D1A2EB0C032C
:100B6000934313EACC1317D150F8042B51F8043BEC
:100B70009A4215D1A2EB0C03934313EACC130BD189
:100B800050F8042B51F8043B9A4209D1A2EB0C0314
:100B9000934313EACC13DBD04FF00000704700BF43
:100BA000D01A01BAB1FA81F101F0180122FA01F06C
:100BB000CB40C1F12001DBB2C0B2C01A2CFA01F364
:100BC000D11A914311EAC311E6D1704708B56946BD
:100BD0008DF800000320ABBE08BD0000464910B5EB
:100BE0004A6822F440324A604A6843681A434A60BD
:100BF00001684A6822F480724A6001684A680369A1
:100C000042EA03224A6001684A6822F040724A6060
:100C100001684A6883681A434A6001688A6822F456
:100C200000628A6001688A68C3681A438A60816AC0
:100C30006FF07062D14201688A6822F070628A6047
:100C400001688A680CD0836A1A438A6001688A68DE
:100C500022F040528A6001688A68C36A1A4301E040
:100C600022F040528A6001688A6822F002028A609B
:100C700001688A68037E42EA43028A6090F8201085
:100C8000002901684A680FD042F400624A60016896
:100C90004A6822F460424A6001684A68174C436A15
:100CA00004EB43331A4301E022F400624A60016816
:100CB000CA6A22F47002CA620168CA6A838B104C45
:100CC00004EB03531A43CA6201688A6822F4007273
:100CD0008A6001688A6890F8303042EA43228A606C
:100CE00001688A6822F480628A6001688A684069C3
:100CF00042EA8020886010BD0023014000E0FFFF31
:100D00000000F0FFFEE770474FF4005000F06CBAAF
:100D100070B5174C154B0022217815465854491CC4
:100D20002170617805291DD2DFE801F0030B101254
:100D30001400242801D0257016E001206070207076
:100D400012E02A2810D1022060700DE00320FBE79A
:100D50000420F9E70A2807D101F052FB65702570DD
:100D6000012201E025706570104670BDB0000020C2
:100D70000000002078B50024009490F83C20012A5F
:100D800019D0012280F83C200A6807230568092A47
:100D900013D9EE680A3A02EB420293409E43EE609A
:100DA0000B788A680A3B03EB43039A400368DD68CB
:100DB0002A43DA6010E0022078BD2E6902EB42027D
:100DC00093409E432E610B788A6803EB43039A405D
:100DD00003681D692A431A614A681F23072A13D230
:100DE00005686E6B521E02EB820293409E436E6357
:100DF0000B790A885B1E92B203EB83039A40036867
:100E00005D6B2A435A6327E005680D2A12D22E6BC8
:100E1000D21F02EB820293409E432E630B790A8815
:100E2000DB1F92B203EB83039A4003681D6B2A43D6
:100E30001A6311E0EE6A0D3A02EB820293409E4380
:100E4000EE620B790A880D3B92B203EB83039A4062
:100E50000368DD6A2A43DA62164B0568144A9D422C
:100E600006D10D68122D03D1556845F480055560F3
:100E700005689D4218D10B68102B01D0112B13D19E
:100E8000536843F400035360096810290CD10A49E0
:100E90000A4A0968B1FBF2F101EB8101490000E067
:100EA000491E00910029FBD180F83C40002078BD0C
:100EB00000230140002001403800002040420F0084
:100EC0000068C06C704770B504004FF0000503D097
:100ED000206C002610B107E0012070BD204600F014
:100EE0001DF8666484F83C60206CC00610D4206C49
:100EF00020F4885040F0020020642046FFF76EFE88
:100F00006664206C20F0020040F00100206400E0E4
:100F1000012584F83C60284670BD000010B586B0FD
:100F2000044614216846FFF7CDFB1149206888422A
:100F30001CD110480021026842F4807202600068EF
:100F400000F4807005900B481438026842F00102EA
:100F50000260006800F0010005904020009003202E
:100F6000CDE901016946044800F04AF906B010BD18
:100F70000020014044380240000002402DE9F041C9
:100F8000044600680D4681684FF0000749050BD5FF
:100F90008068C00508D5206C40F02000206484F8EB
:100FA0003C700120BDE8F08100F028FA064613E00D
:100FB000681C11D025B100F021FA801BA8420BD982
:100FC00020680068800707D4206C40F0040020648B
:100FD00084F83C700320E5E7206800688007E7D5C7
:100FE00021686FF012000860206C40F400702064EB
:100FF0002068816811F0405F13D1217E89B9C16AF0
:1010000011F4700F02D0806840050AD4206C20F4DF
:1010100080702064206CC00403D4206C40F0010078
:1010200020640020BEE7000018B50021009190F870
:101030003C20012A07D0012280F83C2002689368F6
:10104000DB0702D011E0022018BD936843F00103D2
:101050009360244A244B1268B2FBF3F202EB420283
:1010600000E0521E0092002AFBD102689368DB0761
:101070002ED0036C40F20164A34343F480730364F5
:1010800053685B0505D5036C23F4005343F4805388
:101090000364036CDB0404D5436C23F00603436450
:1010A00000E0416480F83C1010496FF022031360A7
:1010B00049680068C90602D00D49884210D181688C
:1010C00011F0405F0CD1816841F08041816007E000
:1010D000016C41F010010164416C41F00101416477
:1010E000002018BD3800002040420F0000230140BE
:1010F000002001402DE9F0410446876D00F07EF9A3
:10110000064694F835000025022806D08020606548
:1011100084F834500120BDE8F0812068016821F096
:10112000160101602068416921F080014161206C55
:1011300008B9A06C20B12068016821F008010160A5
:101140002068016821F0010101600CE000F056F90F
:10115000801B052807D920206065032084F835000E
:1011600084F83450D7E720680068C007EED194F8BF
:101170005C103F208840B860012084F8350084F876
:1011800034500020C7E790F83510022903D08021A1
:10119000416501207047052180F83510006801681D
:1011A00021F00101016000207047000008B5002116
:1011B0000091B0F5005F12D1282000F09DF9084899
:1011C0006946006903F02EF90098002807D0054908
:1011D0004FF080500860BFF34F8FBFF36F8F08BD93
:1011E0000000002004ED00E0044910B50A68024246
:1011F00002D00860FFF7DAFF10BD0000143C014088
:101200002DE9F84FDFF8B8A10022012403254FF0A3
:101210000F090AF1040BAAF1040E00BF0B6804FACF
:1012200002F63340B34273D10F7907F00307012F61
:1012300001D0022F16D187684FEA420805FA08FC50
:1012400027EA0C07D1F80CC00CFA08FC4CEA070C92
:10125000C0F808C04768B7430E79C6F30016964039
:101260003E4346600E79F643B6070DD0C768560078
:1012700005FA06FC27EA0C07D1F808C00CFA06FCB0
:101280004CEA070CC0F80CC00E7906F00306022EDB
:1012900010D1D60800EB8608D8F8206057074FEA2F
:1012A000D76C09FA0CF7BE430F6907FA0CF73743FE
:1012B000C8F8207006684FEA420C05FA0CF7BE43E6
:1012C0000F7907F0030707FA0CF7374307604E68FA
:1012D00016F4403F6DD03B4E376847F48047376087
:1012E000366822F0030706F480460096364E07EB78
:1012F000060CDCF8086897073F0F09FA07F826EA9A
:101300000806DFF8C880404503D14FF000081EE012
:101310004FE0DFF8BC80404502D14FF0010816E0F5
:10132000DFF8B080404502D14FF002080FE0DFF84F
:10133000A880404502D14FF0030808E0DFF89C8008
:10134000404502D14FF0040801E04FF0070808FAC9
:1013500007F848EA0608CCF80888DAF8006057462B
:10136000D1F804C09E435FEACC2C00D51E433E60FA
:10137000DBF800605F46D1F804C09E435FEA8C2C26
:1013800000D51E433E60DEF800607746D1F804C009
:101390009E435FEA8C3C00D51E433E60084F083FE9
:1013A0003E68D1F804C09E435FEACC3C00D51E43A2
:1013B0003E60521C102AFFF431AFBDE8F88F0000E8
:1013C000083C014044380240003001400000024027
:1013D0000004024000080240000C024000100240DD
:1013E000426921EA02030A4043EA024181617047EF
:1013F0000AB1816170470904FBE700000148806879
:10140000704700003C0000200248816802781144C7
:10141000816070473C0000200B4810B5016841F422
:1014200000710160016841F480610160016841F46C
:1014300080710160032000F09DF80F2000F006F895
:1014400000F03EF8002010BD003C024010B50146FF
:1014500088B000221A2000F06DF81A2000F05DF824
:1014600013480024016841F480210160006805A947
:1014700000F480200690684600F028F900F056F944
:101480000C490D4AB0FBF1F10C48491E026040F2D4
:10149000E732C0E90324C0E9011400F03FFB10B1BA
:1014A000012008B010BD054800F066FBF9E7000018
:1014B0004438024040420F000048014030050020FF
:1014C0000C4882B0016841F480410160006800F47A
:1014D000804000900748001F016841F08051016082
:1014E0000068002200F0805000900F21901E02B092
:1014F00000F020B84438024000280DDB00F01F0245
:10150000012191404009800000F1E020C0F88011E5
:10151000BFF34F8FBFF36F8F7047002809DB00F0D8
:101520001F02012191404009800000F1E020C0F835
:1015300000117047F0B40E4B1B680C46C3F3022336
:10154000C3F10705042D00D90425191D072901D26F
:10155000002300E0DB1E012606FA05F1491E2140AA
:1015600099409E40761E16403143F0BC01F031BBDD
:101570000CED00E0064900F0070208684FF6FF0393
:10158000184040EA0220034A1043086070470000F8
:101590000CED00E00000FA052DE9F0470E460500CD
:1015A00065D0DFF81481D8F80000F7B200F007002A
:1015B000B04207D288F80070D8F8000000F00700A9
:1015C000B04254D128683D4C810712D5400703D55D
:1015D000206840F4E05020602878000703D5206898
:1015E00040F4604020602068A96820F0F0000843C3
:1015F00020602878C0072DD0304968680839012854
:1016000012D0022813D0032811D0096889070029B5
:101610002DDA216821F0030101432160FFF7EEFE7E
:10162000814641F2883A0EE009688903EFE70968CC
:101630008901ECE7FFF7E2FEA0EB0901514502D971
:101640000320BDE8F0872068696800F00C00B0EB6B
:10165000810FEFD1D8F80010404601F00701B142E8
:1016600007D90770006800F00700B04201D00120E0
:10167000E7E72878400705D52068E96820F4E050BE
:10168000084320602878000706D52068296920F4DF
:10169000604040EAC100206000F058F82168084A24
:1016A000C1F30311515CC840064908600648006850
:1016B000FFF7CCFE0020C4E7003C0240083802409F
:1016C0004C58000838000020400000200F22026023
:1016D0000C4A136803F003034360136803F0F0033C
:1016E0008360136803F4E053C36012684FF4E0535F
:1016F00003EAD20202610448006800F007000860B3
:101700007047000008380240003C02400448054988
:1017100000680968044AC1F38221515CC8407047DF
:1017200038000020083802405C5800080448054989
:1017300000680968044AC1F34231515CC8407047EF
:1017400038000020083802405C580008154810B5E1
:10175000006810F00C02144813D04110042A0FD076
:10176000082A0ED10F4C241F2268236802F03F0282
:101770005B0207D52068C0F38810A0FB010106E0DA
:10178000084610BD2168C1F38811A1FB00010023A8
:10179000FEF738FE2168C1F30141491C4900B0FB46
:1017A000F1F010BD083802400024F4002DE9F84F94
:1017B00004006ED02078DFF84C93C007A9F104052F
:1017C0004AD009F104000168C1F38101012908D060
:1017D0000068C0F3810002280AD1D9F80000400255
:1017E00006D52868800337D560680028E1D033E04B
:1017F0006068B0F5803F10D0B0F5A02F286810D0F9
:1018000020F480302860286820F4802028606068F8
:10181000A8B1FFF7F3FD06460DE0286840F48030DC
:10182000F4E740F480202860F7E700BFFFF7E6FD0B
:10183000801B642873D828688003F7D50CE0FFF775
:10184000DDFD064605E000BFFFF7D8FD801B6428DC
:10185000F0D828688003F7D42078DFF8AC828007BE
:101860004FF0000A3ED5A748001D016811F00C0F8B
:1018700008D00068C0F3810002280BD1D9F800001D
:10188000400207D42868800716D5E068012800D1F7
:1018900012E033E1E068B8B10120C8F80000FFF7BA
:1018A000ADFD064605E000BFFFF7A8FD801B02283E
:1018B000C0D828688007F7D52868216920F0F8008B
:1018C00040EAC10028600DE0C8F800A0FFF796FDCF
:1018D000064604E0FFF792FD801B02281FD8286807
:1018E0008007F7D42078000722D5864F87486169A2
:1018F000703771B101210160FFF780FD064604E0F9
:10190000FFF77CFD801B022809D838688007F7D5CF
:101910000EE0C0F800A0FFF771FD064605E082E08A
:10192000FFF76CFD801B02287DD838688007F7D44C
:101930002078400768D5DFF8CCB100270BF13C0BCD
:10194000DBF80000C0000BD4DBF8001041F0805140
:10195000CBF80010DBF80000012700F08050009069
:101960006B4E3068C00510D4306840F48070306031
:10197000FFF744FD009005E0FFF740FD0099401A95
:10198000022850D83068C005F6D55E4EA0686C3687
:1019900001280FD00528306810D020F001003060F9
:1019A000306820F004003060A068B8B1FFF726FD71
:1019B00000900FE0306840F00100F4E740F00400D0
:1019C0003060F7E7FFF71AFD0099411A41F28830BD
:1019D000814266D830688007F4D50EE0FFF70EFD2F
:1019E000009007E0FFF70AFD0099411A41F28830A4
:1019F000814256D830688007F4D42FB1DBF800104C
:101A000021F08051CBF80010A069C8B33D49091DF1
:101A10000968C1F3810102294AD00228504607D043
:101A2000C8F8600000E03CE0FFF7E8FC04463BE05B
:101A30004746C8F86000FFF7E1FC064605E000BF36
:101A4000FFF7DCFC801B02282BD828688001F7D424
:101A5000D4E907010843A16A2E4A490802EB014173
:101A6000626A41EA8211084394F82C1040EA01614D
:101A7000C9F8001001203866FFF7C0FC044606E0F4
:101A80003EE000BFFFF7BAFC001B022809D8286817
:101A90008001F7D534E000BFFFF7B0FC001B02283F
:101AA00002D90320BDE8F88F28688001F4D427E02C
:101AB0000128F7D0D9F80000E26900F480019142D2
:101AC0001CD1226A00F03F01914217D147F6C07144
:101AD000626A0140B1EB821F10D1A26A4FF0FF335E
:101AE00000F4403103EB5202B1EB024F06D194F8FF
:101AF0002C1000F07060B0EB016F01D00120D1E735
:101B00000020CFE70438024000004742800E4742E1
:101B1000007000400000FFFF7047704710B50400E0
:101B200003D094F83D0010B107E0012010BD002063
:101B300084F83C00204600F01EF8022084F83D00A6
:101B4000211D206800F02EFD012084F8460084F855
:101B50003E0084F83F0084F8400084F8410084F897
:101B6000420084F8430084F8440084F8450084F877
:101B70003D00002010BD704790F83D10012901D0B4
:101B800001207047022180F83D100168CA6842F0C8
:101B90000102CA6000680E4988420ED0B0F1804F41
:101BA0000BD00C49884208D00B49884205D00B491C
:101BB000884202D00A49884204D1816801F00701B5
:101BC000062903D0016841F001010160002070473F
:101BD000000001400004004000080040000C0040EC
:101BE00000400140704770B50446006801694FF03D
:101BF0000005C943890715D4C168C943890711D4B1
:101C0000E91E016101202077206880698007204655
:101C100002D0FFF7E7FF04E000F098F8204600F05C
:101C200096F8257720680169C943490717D4C16828
:101C3000C943490713D46FF00401016102202077E2
:101C40002068806910F4407F204602D0FFF7CAFF69
:101C500004E000F07BF8204600F079F82577206852
:101C60000169C943090716D4C168C943090712D4D9
:101C70006FF008010161042020772068C0698007A7
:101C8000204602D0FFF7AEFF04E000F05FF82046E8
:101C900000F05DF8257720680169C943C90617D4AB
:101CA000C168C943C90613D46FF01001016108204F
:101CB00020772068C06910F4407F204602D0FFF7EB
:101CC00091FF04E000F042F8204600F040F825774C
:101CD00020680169C943C90708D1C168C943C90758
:101CE00004D1891E0161204600F032F820680169A4
:101CF000C943090609D4C168C943090605D46FF070
:101D0000800101612046FFF707FF20680169C94390
:101D1000490609D4C168C943490605D46FF040019A
:101D20000161204600F01EF820680169C943890658
:101D30000BD4C168C943890607D46FF02001016143
:101D40002046BDE87040FFF7E8BE70BD70477047A1
:101D500000680349884201D1FFF756BB7047000075
:101D6000004801407047704770470000F8B50168AF
:101D700004460868CA684B6910F00F0F4FF0000561
:101D800059D003F0010602F49077374365D0C107BC
:101D900005D0D10503D5216C41F001012164410733
:101DA00005D5D90703D0216C41F0020121648107D8
:101DB00005D5D90703D0216C41F004012164010746
:101DC00007D502F02001314303D0216C41F0080116
:101DD0002164216C00293AD0800604D5900602D5F2
:101DE000204600F08AFD20684069216CC0F3801015
:101DF000090700D460B3204600F058FD2068406910
:101E0000400621D52068143050E8001F21F0400121
:101E100040E80012002AF5D1A06BA8B16C49016519
:101E2000A06BFFF7B0F9002811D0A06B016D01B0D5
:101E3000BDE8F040084783060FD593060DD5204630
:101E4000BDE8F84000F059BD2046FFF78DFFF8BD12
:101E50002046FFF789FF2564F8BD266B2023012E5D
:101E600079D1C60677D5D60675D50868486800903A
:101E70004869400640D5A16B086840680004000C22
:101E8000EAD0A28D8242E7D9E085C869B0F5807FAB
:101E90002DD020680C3050E8001F21F4807140E8FC
:101EA0000012002AF5D12068143050E8001F21F0FC
:101EB000010140E80012002AF5D12068143050E8F2
:101EC000001F21F0400140E80012002AF5D184F8FB
:101ED0003E30256320680C3050E8001F21F01001CF
:101EE00040E80012002AF5D1A06BFFF703F9A08D9E
:101EF000E18D401A81B229E0A08DE18D401A81B2B6
:101F0000E08D0028A8D00029A6D020680C3050E829
:101F1000002F22F4907240E80026002EF5D12068B0
:101F2000143050E8002F22F0010240E80026002E75
:101F3000F5D184F83E30256320680C3050E8002F3E
:101F400022F0100240E80023002BF5D12046FFF7D5
:101F50000AFFF8BDFFE705062BD5150629D594F82D
:101F60003D002128F5D1A068B0F5805F01D120693E
:101F7000B0B1206A411C2162216800784860E08C81
:101F8000401E0004000CE084E3D12068C16821F009
:101F90008001C1602068C16841F04001C160D8E79C
:101FA000206A0088C0F308004860206A801C206214
:101FB000E5E74006CDD55006CBD5CA68204622F0CD
:101FC0004002CA6084F83D3000F07FF9C1E70000AC
:101FD0009D28000870B5040004D094F83D00002549
:101FE00010B106E0012070BD84F83C50204600F09E
:101FF00023F8242084F83D002068C16821F40051B2
:10200000C160204600F0DAFC2068016921F49041AB
:1020100001612068416921F02A0141612068C1689D
:1020200041F40051C1602564202084F83D0084F80B
:102030003E00002070BD0000F0B587B004461421BA
:102040006846FEF73FFB3E49DFF8F0C027680022F4
:102050003B4B14390224032507263A4867451FD114
:102060001F6847F010071F601B6803F010030593FB
:102070000B6843F001030B60096802AF01F0010136
:1020800005916902CDE9001487E864006946FFF70D
:10209000B7F8002205212520FFF74CFA252024E07F
:1020A000DFF8A4C0674524D1254B1B1F1D6845F4EC
:1020B00000351D601B6803F4003305930B6843F083
:1020C00001030B60096801F0010105910C210091E9
:1020D000CDE90142CDE903266946FFF791F80022D8
:1020E00005212620FFF726FA2620FFF716FA07B06B
:1020F000F0BD164EB742FAD11E6846F020061E60AB
:102100001B6803F0200305930B6843F001030B6089
:102110000968029201F0010105914FF4C051CDE927
:1021200000140821CDE903516946FFF769F8002240
:1021300005214720FFF7FEF94720D6E700100140B0
:1021400044380240000002400044004000140140B6
:1021500090F83E30202B0ED159B152B190F83C305E
:10216000012B08D0012380F83C300023036300F0EA
:10217000ABBC01207047022070470000F8B5002179
:1021800000912249224E234C4FF08055884212D1B3
:102190006179206B01F071FC1C480122611D443003
:1021A000FFF7D6FF6946606916E03560BFF34F8FD1
:1021B000BFF36F8FF8BD15498831884212D121795C
:1021C000E06A01F05AFC134910480122091D8830C9
:1021D000FFF7BEFF6946A06902F024F900980028C5
:1021E000E3D1F8BD094944318842FAD10949074889
:1021F000A7790122891D4430FFF7AAFF3846FEF770
:1022000087FD0028EDD06946206AE5E748010020F7
:1022100004ED00E0000000202DE9F843044690F8AA
:102220003D001F4616460D4620284CD1C5B1BEB113
:1022300094F83C00012846D0012084F83C004FF07F
:102240000008C4F84080212084F83D00FFF7D6F84C
:10225000A6848146E684A068B0F5805F03D004E0E0
:102260000120BDE8F883206928B12E465FF0000503
:1022700084F83C800EE00026FAE78021204600F03A
:1022800040FCA0B9AEB116F8010B21684860E08CA3
:10229000401EE084E08C4B464FF00002009700287F
:1022A000EBD14FF04001204600F02BFC30B1032071
:1022B000D7E735F8020BC0F30800E6E7202084F8E2
:1022C0003D000020CDE70220CBE77047FEE700008D
:1022D0001FB500211548009101910291124A039106
:1022E00002604FF48032C0E901210161017680F87B
:1022F00020100F4AC0E90A210124C461C16080F89E
:1023000030104161FEF7DFFD08B172B6FEE706202E
:10231000CDE90004694605480294FEF72BFD00282C
:1023200001D072B6FEE71FBD002001400001002071
:102330000100000FF0B587B014216846FEF7C2F91E
:102340002A480025016841F004010160016801F09C
:1023500004010591016841F080010160016801F00C
:1023600080010591016841F001010160016801F0FF
:1023700001010591016841F00201016000681C4EF5
:1023800000F002000590002220213046FFF730F8CF
:10239000184F012211463846FFF72AF842F203008F
:1023A00000904FF404100124CDE90104694612485D
:1023B000FEF726FF20208DE8310069463046039560
:1023C000FEF71EFF1120CDE900400220CDE90240BA
:1023D00069463846FEF714FF002205212820FFF742
:1023E000A9F82820FFF799F807B0F0BD303802406F
:1023F000000002400004024000080240FEE7FEE741
:102400007FB5284A00232849184693600C5C00F1E8
:1024100001002C2CFAD1906000E0401C0C5C2C2CAC
:10242000FBD1C01C90600C5C00F101002C2CFAD197
:1024300090600C5C00F101002C2CFAD190600C5CD7
:1024400000F101002C2CFAD190600C5C00F101002D
:102450002C2CFAD190600025009301936C460293D6
:1024600002E06355401C6D1C0B5C2C2BF9D1906075
:102470002046FEF7C9F8002500E06D1C605D2E289F
:10248000FBD168466D1CFEF7CCF8461B6019FEF7C1
:10249000BBF8044631460A2001F0F5FB94FBF0F04E
:1024A0007FBD000000000020B0000020044C20216F
:1024B0002046FEF795FFFA2001F0ACFBF7E700009D
:1024C0000000024010B5502080F31188BFF34F8FF9
:1024D000BFF36F8F02F084FA18B104494FF08050B7
:1024E0000860002080F3118810BD000004ED00E0BA
:1024F00030B593B030216846FEF7E4F814210CA8FB
:10250000FEF7E0F81E480024016841F080510160A8
:10251000006800F0805011901A48016821F4404191
:1025200041F4004101600068022500F44040119030
:10253000012003901020009506950490CDE90740F6
:102540004FF4A870099004200A9007200B90684669
:10255000FFF72CF908B172B6FEE70F20CDE90C05A4
:102560004FF48050CDE90E4002210CA81094FFF7E3
:1025700013F8002801D072B6FEE713B030BD00009A
:1025800040380240007000400248016841F4700188
:102590000160704788ED00E00148FFF724BB0000B0
:1025A00030050020F0B502681D4B1E4C9F031E4DE8
:1025B0001E4E984207D0B84205D0A04203D0A84290
:1025C00001D0B04204D122F0700C4A6842EA0C02F9
:1025D000984210D0B8420ED0A0420CD0A8420AD0E7
:1025E000B04208D0124CA04205D0124CA04202D0FA
:1025F000114CA04203D122F44074CA6822434C69B2
:1026000022F08002224302608A68C2620A68826203
:10261000984201D10969016301214161F0BD0000C7
:10262000000001400004004000080040000C004091
:102630000040014000440140004801400A4C0B4E5C
:102640004FF0FF374FF400553946012001F092FD5D
:102650000121606B02F01AF8642001F0DBFA3560AA
:102660002820FEF75AFFEFE700000020143C01404D
:10267000054D4FF47A740421686B02F007F8204688
:1026800001F0C8FAF7E700000000002064211148BB
:1026900001F0DCF9104C0122211DE0620D484438A4
:1026A000FFF756FD4FF0FF352946012001F062FD8E
:1026B00007E0094907480A230122C91C8838FFF7A7
:1026C000ABFD0549E06AC91C01F0A7F90028EBD170
:1026D000EFE7000014020020000000201FB50122D7
:1026E00011491248FFF734FD11A34FF0FF340FCB0F
:1026F0008DE80F002146012001F03CFD6846FDF702
:1027000090FF82B20A2369460848FFF785FD074813
:10271000DC38FDF786FF054982B20A23DC3903481D
:10272000FFF77AFDE6E70000060000208C0100209C
:1027300052656365626575206D73670A000000006D
:1027400088B00D4C4FF4FA650C48FEF76DFC64211F
:102750000A48FEF713FC58B90848FEF7B1FB0246D9
:1027600007A16846FDF7C6FE0221606B01F08EFFEF
:10277000284601F04FFAE7E70000002000010020A2
:10278000416463203D202530580A0000642111482F
:1027900001F05CF9104C0122611D20630D48EC38FA
:1027A000FFF7D6FC4FF0FF352946012001F0E2FC8F
:1027B00007E0094907480A230122891CA838FFF7C6
:1027C0002BFD0549206B891C01F027F90028EBD16E
:1027D000EFE7000078020020000000201EA190B06A
:1027E0000FC90DF11C0C8CE80F0018221EA101A8C6
:1027F000FDF736FF142222A10BA8FDF731FF254E6D
:102800004FF0FF35012300951A460721706B01F048
:1028100083FF0446C00708D007A8FDF702FF82B275
:102820000A2307A91C48FFF7F7FC600708D501A891
:10283000FDF7F7FE82B20A2301A91748FFF7ECFC67
:10284000A007DFD50BA8FDF7ECFE82B20A230BA987
:102850001148FFF7E1FCD5E741706572746F752090
:10286000626F74616F210A0053656E736F7220642A
:10287000652074656D7065726174757261210A00FE
:102880005472616E736475746F72204C4452210AE5
:1028900000000000000000208C01002010B5806BBB
:1028A0000021C185C184FFF75FFA10BD01680C31BA
:1028B00051E8002F22F4907241E80023002BF5D15B
:1028C0000168143151E8002F22F0010241E8002391
:1028D000002BF5D1016B012909D101680C3151E8B8
:1028E000002F22F0100241E80023002BF5D1202117
:1028F00080F83E1000210163704708B590F83E1043
:10290000222901D0022008BD82684FF480539A42E8
:1029100001D1016921B1816A9A421BD04AB10AE012
:102920000268816A5268C2F308020A80816A891CBF
:1029300008E0026972B10268526802F07F020A7010
:10294000816A491C8162C18D491E0904090CC18537
:1029500003D019E002685268F1E70168CA6822F002
:102960002002CA600168CA6822F48072CA600168E5
:102970004A6922F001024A61202180F83E10016B71
:10298000012903D0FFF7FAFB002008BD00210163F5
:1029900001680C3151E8002F22F0100241E80023B9
:1029A000002BF5D101680A68D20602D50A68496889
:1029B0000091818DFFF7D7F9E6E7000070B5044676
:1029C00000680169E26821F4405111430161216905
:1029D000A068E26908436169114308432168CA6835
:1029E00049F20C639A430243CA6020684169A269B4
:1029F00021F440711143416131492068884202D07D
:102A00003049884202D1FEF791FE01E0FEF77EFEDA
:102A1000E2690023192164253226B2F5004F62686D
:102A200028D0A0FB0101930F9200FDF7EBFC0146BB
:102A3000B0FBF5F06FF01802504301EB800006EB9D
:102A40000010B0FBF5F000F0F002B1FBF5F002EB86
:102A50000012B1FBF5F06FF01803584301EB800052
:102A600006EB0010B0FBF5F000F00F0021681044F9
:102A7000886070BDA0FB010192185B41FDF7C2FCAC
:102A80000146B0FBF5F00201B1FBF5F06FF0180361
:102A9000584301EB800006EBC000B0FBF5F000F0FE
:102AA000F80002EB4002B1FBF5F0584301EB800067
:102AB00006EBC000B0FBF5F000F00700D6E7000021
:102AC000001001400014014081628285C28500210E
:102AD0000164222280F83E2080F83C10016921B177
:102AE0000168CA6842F48072CA6001684A6942F0AB
:102AF00001024A610068C16841F02001C160002004
:102B000070472DE9F041984617460E460446069D4B
:102B100027E0681C25D02DB1FEF770FCA0EB080063
:102B2000A8421ED920680C3050E8001F21F4D07153
:102B300040E80012002AF5D12068143050E8001F48
:102B400021F0010140E80012002AF5D1202084F88C
:102B50003D0084F83E00002084F83C000320BDE8DE
:102B6000F0812068006836EA000004D00020B842F6
:102B7000CFD00020F3E70120F9E700000148FFF77C
:102B8000F5B80000480100200148FFF7EFB8000049
:102B90008C0100200148FFF7E9B80000D0010020B7
:102BA000FEE703B401984100009850EAC12018BF25
:102BB00004204A0D18BF40F0010040F2FF72B2EB52
:102BC000515F08BF40F00200012808BF052002B095
:102BD00070470907090E002804DB00F1E02080F8A7
:102BE0000014704700F00F0000F1E02080F8141D81
:102BF00070470000000000002DE9F04D2DED040BA2
:102C00002DED0E8B96B0DDE92550279CDDF890A0C8
:102C100025F0004624F00048BAF1000F14BF01214E
:102C2000002101EB4502FC4953184A1093422AD374
:102C3000002814BF0123002303EB44030B44F7498E
:102C40008B4220D358EA00019FEDF59B76D0DFF848
:102C5000D8B35D4503D1BAF1000F05D188E0BAF1D0
:102C6000000F08BF002100D0012101EB450111F543
:102C7000001F08D8002814BF0121002101EB4401E6
:102C800011F5001F0BD99DED261B9DED240B16B0F1
:102C9000BDEC0E8B04B0BDE8F04D00F069BE00271E
:102CA000002DBCBFE149884521DAE1498845A8BF2C
:102CB00002271CDAC3451ADCDE4901EB285114292E
:102CC00008DDC1F1340220FA02F101FA02F2824277
:102CD0000DD108E058B9C1F1140228FA02F101FA45
:102CE00002F2424503D101F00101C1F1020756EAA7
:102CF0000A0124D1002C22DA002D18BF022F01D0A6
:102D0000012F0AD00220FDF762FD16B0BDEC0E8B3C
:102D100004B0BDE8F04D00F013BE0220FDF757FDF2
:102D200000F00EFE51EC100B01F038FF41EC100BDF
:102D300016B0BDEC0E8B04B0BDE8F08D18E09FED31
:102D4000BEAB9FEDBF8B002871D1B848804522D122
:102D500005F1804010F5801008BFBAF1000F07D0D0
:102D6000B3450ADC002CA8BF9DED260BE0DA0DE090
:102D7000B0EE490AF0EE690ADAE7002C06DA9DEDBA
:102D8000260B51EC100B01F009FF6FE0AE487844C0
:102D900090ED000BCCE7D8454DD1002C48DA2EB190
:102DA00086423AD1BAF1000F42D126E0BAF1000FC3
:102DB00013D00220FDF70BFD00F0F6FD8DED020BA8
:102DC0009DED240B8DED000B10EE900A039961F33D
:102DD0001E0003909DED020BAAE78DED02AB9DED69
:102DE000240B1AEE901A10EE900A8DED000B61F391
:102DF0001E0003909DED020B9AE78DED028B9DED79
:102E0000240B18EE901A10EE900A8DED000B61F372
:102E10001E0003909DED020B8AE709DA9DED240B5D
:102E200051EC190B53EC102B01F080FF1EE020E059
:102E30009DED240B7CE786421BDAB4F1804F0DD068
:102E4000A4F10050B0F1FF5013D1002D11DB9DED26
:102E5000240B51EC100B01F055F907E09DED240B0C
:102E600053EC102B51EC100B00F0C2BC41EC100BDA
:102E70005EE79DED240B51EC100B00F010FEBAF153
:102E8000000FCDE90E0142D19FED710B46B3A6F1C3
:102E9000E040B0F17F600CD05E4538D1002D00DA03
:102EA000A7B3022F0CBF01204FF0FF3002F096F8BD
:102EB000DCE7002D01DD002C0DDA002D01DD002CFA
:102EC0001FDB002D16DA002C14DB012F08BF9FED4D
:102ED000620B3FF42DAFB0EE4A0AF0EE6A0A27E724
:102EE000022F18BF002D0CD0012F0AD1002DFFF6A4
:102EF0001FAF06E0002DB8BF002C08DA012F3FF409
:102F000017AFB0EE480AF0EE680A11E71BE00120A7
:102F100000EBE57050EA070115D0791EB0EE498A42
:102F2000F0EE698A084308BF9FED4D8B4E4800259F
:102F3000804570DD4D494E48884514DDB0420DDBBB
:102F4000002C19DB2FE00120FDF741FC16B0BDEC91
:102F50000E8B04B0BDE8F04D00F016BDB34502DCA9
:102F6000002C09DC1FE0864202DA002C1BDA03E0A9
:102F70005E452BDD002C16DD0220FDF728FC00F05D
:102F800013FD8DED020B53EC1A2B51EC180B02F0D4
:102F900079F8CDE900010399019861F31E000390CF
:102FA0009DED020BC4E60220FDF711FC00F00CFDC4
:102FB00010EE901A18EE900A8DED020B8DED008B3D
:102FC00061F31E0003909DED020BB1E69DED0E0B2B
:102FD00053EC192B51EC100B02F060FA9FED260B0D
:102FE000CDE9080153EC102B9DED080B51EC100BB3
:102FF00002F048F89FED221B53EC112B02F076F9FA
:103000009DED081B53EC112B02F03CF89FED1E1BAD
:1030100053EC112B3CE08CE0FFFF1F00FFFF0F0083
:10302000000000000000F03F0000F03F0000F07FD3
:103030000000404301FCFFFF000000000000F07FA3
:103040000000000000000000962B000000000000BF
:103050000000000000000080000000000000F0FF01
:10306000000000000000F0BF0000E0410000F0435D
:10307000FFFFEF3F00000000000000000000D03F15
:10308000555555555555D53F000000000000E03F0F
:1030900002F02CF99DED080B41EC1A0B53EC102BB0
:1030A00051EC100B01F0EEFF53EC1A2B01F0EAFF8C
:1030B00041EC1A0B9FEDFE0B53EC102B9DED080B12
:1030C00051EC100B01F0DEFF41EC1B0B9FEDFA0BF6
:1030D00051EC1A0B53EC102B01F0D4FF41EC1A0BFE
:1030E0009FEDF70B53EC102B9DED080B51EC100BE3
:1030F00001F0C8FF53EC1A2B02F0D0F941EC1A0B87
:1031000051EC1B0B53EC1A2B01F054FD0690CDE94A
:1031100006519DED060B53EC1B2B51EC100B02F0EE
:10312000BDF953EC1A2B02F0E1F841EC100B00F062
:10313000A1B90020B6F5801F0EDA9FEDE30B53EC2A
:10314000102B9DED0E0B51EC100B01F09BFFCDE908
:103150000E016FF034000E4600EB2650A0F2FF3750
:10316000C6F31300DA4940F07F6646F040568842C5
:10317000D8BF002408DDD7498142C8BF012403DC41
:103180000024A6F580167F1CD348784400EBC400C9
:103190000F9690ED00CB9DED0E0B53EC1C2B51ECDC
:1031A000100B02F07BF99DED0E0B41EC1B0B53EC69
:1031B0001C2B51EC100B01F0FDFC41EC100B51EC01
:1031C000190B53EC102B01F0B1FD41EC1D0B51EC30
:1031D0001B0B53EC1D2B01F055FF41EC1A0BBF48A4
:1031E0008DED10AB7844109590ED000B4FF0005032
:1031F00040EA660000EB84408DED080B00F50020EE
:1032000009909DED080B53EC1C2B51EC100B02F0B8
:1032100045F99DED0E1B53EC112B02F067F841ECC4
:10322000100B53EC102B9DED100B51EC100B01F01B
:1032300029FF9DED080B41EC1C0B53EC102B9DED71
:10324000100B51EC100B01F01DFF53EC1B2B02F087
:103250004DF853EC1C2B02F021F953EC1D2B01F01F
:1032600011FF41EC1C0B53EC1A2B51EC1A0B01F023
:1032700009FF41EC1B0B9A480621B0EE4B0AF0EE19
:103280006B0A784400F0E0FAB0EE401AF0EE601AF3
:10329000B0EE41DAF0EE61DA53EC1B2B51EC1B0B74
:1032A00001F0F0FE53EC1D2B01F0ECFE9DED100B38
:1032B00041EC1B0B53EC1A2B51EC100B01F07AFC78
:1032C00053EC1C2B01F0DEFE53EC1B2B01F072FCC7
:1032D0009DED100B41EC1B0B53EC102B51EC100B24
:1032E00001F0D0FE41EC1D0B9FED7FEB53EC1E2B4C
:1032F00001F060FC53EC1B2B01F05CFC0890CDE965
:1033000008519DED080B53EC1E2B51EC100B02F0F5
:10331000C5F853EC1D2B02F0C1F853EC1B2B01F048
:10332000E5FF9DED080B41EC1D0B53EC102B9DEDC3
:10333000100B51EC100B01F0A5FE41EC1B0B53ECF4
:103340001A2B51EC1D0B01F09DFE9DED080B41EC7D
:103350001A0B53EC102B51EC1C0B01F093FE53ECA9
:103360001A2B01F027FC41EC1A0B51EC1B0B53EC10
:103370001A2B01F01FFC0C90CDE90C519DED0C0BAC
:1033800053EC1B2B51EC100B02F088F853EC1A2B6A
:1033900001F0ACFF41EC1B0B9FED550B53EC102BD8
:1033A0009DED0C0B51EC100B01F06CFE41EC1A0B77
:1033B0009FED510B51EC1B0B53EC102B01F062FEF7
:1033C00041EC1B0B9FED4E0B53EC102B9DED0C0BAA
:1033D00051EC100B01F056FE53EC1B2B01F0EAFBF5
:1033E00041EC100B4848784400EBC40090ED001B02
:1033F00051EC100B53EC112B01F0DCFB41EC1B0BDF
:10340000384601F0EBFDCDE9080153EC1B2B51ECE4
:103410001A0B01F0CFFB41EC100B3C48784400EB59
:10342000C40090ED00CB51EC100B53EC1C2B01F0C1
:10343000C1FB9DED081B53EC112B01F0BBFB06906B
:10344000CDE906519DED080B53EC102B9DED060BBD
:1034500051EC100B02F022F853EC1C2B02F01EF87A
:1034600053EC1A2B02F01AF853EC1B2B01F03EFF21
:1034700041EC100B9DED261B53EC102B8DED001B2A
:1034800000959DED260B51EC100B01F0FBFD9DED21
:10349000000B41EC1A0B53EC102B9DED260B51EC5D
:1034A000100B01F0FBFF9DED061B53EC112B2FE0E1
:1034B000000000604715F73FFE822B654715F73F78
:1034C00044DF5DF80BAE543E0000000000004043B6
:1034D0008E9803007AB60B001227000040270000E8
:1034E0004A26000000000000000000000000084024
:1034F000000000E009C7EE3FFD033ADC09C7EE3FDC
:10350000F5015B14E02F3EBED6240000902400009D
:1035100001F0B8FD53EC1A2B01F04CFB9DED060BAE
:1035200041EC1A0B53EC102B9DED000B51EC100BE2
:1035300001F0A8FDCDE90C019DED0C0B51EC1A0B2F
:1035400053EC102B01F036FBCDE902010C46AA49E1
:103550008C422FDB611A084318D19DED0C0B53EC04
:10356000102B9DED020B51EC100B01F097FF41EC7D
:103570001B0B9FEDA30B51EC1A0B53EC102B01F01E
:1035800019FB53EC1B2B01F07BFE2DD20220FDF723
:103590001EF900F009FA10EE901A18EE900A8DED5F
:1035A000020B8DED008B61F31E0003909DED020B6D
:1035B000FFF7BEBB944A24F00041914214D39349D3
:1035C000214408437FF4EFAC9DED0C0B53EC102B22
:1035D0009DED020B51EC100B01F060FF53EC1A2B28
:1035E00001F04EFE7FF6DFAC24F000408849894AA6
:1035F000002601EB205182422BDA481C4FF4801147
:1036000021FA00F02044844AC0F30A517A44A1F21E
:10361000FF3192ED000B814A8DED080BCA4020EA84
:103620000202C0F3130040F48010C1F1140120FA2B
:1036300001F60992002CB8BF76429DED080B53ECC1
:10364000102B9DED0C0B51EC100B01F027FFCDE979
:103650000C019DED0C0B51EC1A0B53EC102B01F0EF
:10366000A9FA9FED6F0B0890CDE9085153EC102B90
:103670009DED080B51EC100B01F004FD41EC1B0B10
:103680009FED690B53EC102B9DED080B51EC100BCB
:1036900001F0F8FC9DED0C0B41EC1C0B53EC102BD6
:1036A0009DED080B51EC100B01F0F8FE53EC1A2BBA
:1036B00001F01CFE9FED5E1B53EC112B01F0E2FCB0
:1036C00053EC1C2B01F076FA41EC1A0B51EC1B0B5E
:1036D00053EC1A2B01F06EFACDE902019DED020BBD
:1036E00053EC1B2B51EC100B01F0D8FE53EC1A2BB2
:1036F00001F0FCFD9DED020B41EC1A0B53EC102B7D
:1037000051EC100B01F0BEFCCDE908014A489DEDDB
:10371000080B0521784400F097F89DED081B51EC4B
:10372000100B53EC112B01F0ADFC9DED021B53EC83
:10373000112B01F0DBFDCDE906019DED020B53ECF1
:103740001A2B51EC100B01F09DFC53EC1A2B01F0DD
:1037500031FA9FED3B0B41EC1A0B53EC102B9DED16
:10376000060B51EC100B01F099FE9DED060B41ECA0
:103770001B0B53EC102B9DED020B51EC100B01F0C9
:1037800081FC53EC1B2B01F0D1FA53EC1A2B01F006
:1037900085FE9DED021B53EC112B01F07FFE53ECD7
:1037A000192B01F0A3FDCDE9020101EB0650011533
:1037B0000029C8BF039015DC9DED020B324651EC89
:1037C000100B01F08CFFFFF7ECF9042808BF00F0A4
:1037D000FBF832469DED020B51EC100B01F07FFF20
:1037E000CDE902019DED020B51EC180B53EC102BAF
:1037F00001F048FCFFF73ABB0000904000000000D9
:10380000FE822B654715973C00CC904000346F3FFB
:1038100001FCFFFF0000E03F18230000FFFF0F0046
:1038200000000000432EE63F396CA80C615C20BE0E
:10383000EF39FAFE422EE63FE821000000000000CA
:10384000000000000000004070B504462DED028B22
:103850004D1E00EBC500B0EE408AF0EE608A90EDA0
:10386000000B35F0060017D053EC182B51EC100B61
:1038700001F008FC41EC100B6D1E04EBC50090ED4F
:10388000001B51EC100B53EC112B01F093F941ECA0
:10389000100B35F00600E7D1022D36D0042D1CD0D8
:1038A000062D1CBFBDEC028B70BD53EC182B51ECE8
:1038B000100B01F0E7FB94ED0A1B53EC112B01F008
:1038C00079F953EC182B01F0DDFB94ED081B53EC58
:1038D000112B01F06FF941EC100B53EC182B51EC4C
:1038E000100B01F0CFFB94ED061B53EC112B01F0F4
:1038F00061F953EC182B01F0C5FB94ED040B53EC6C
:10390000102B01F057F941EC100B53EC182B51EC34
:10391000100B01F0B7FB94ED021B53EC112B01F0DF
:1039200049F953EC182B01F0ADFB94ED001B53EC5F
:10393000112B01F03FF9BDEC028B41EC100B70BD77
:103940009FED070B10B553EC102B9FED070B51ECBF
:10395000100B01F0EBF941EC100B10BD0000000062
:103960000000000000000000000000000000F03F28
:1039700010B553EC112B51EC100B01F01BF941EC7D
:10398000100B10BD000000009FED050B10B553ECAF
:10399000102B51EC100B01F0C9F941EC100B10BDCC
:1039A00000000000000000009FED050B10B553EC77
:1039B000102B51EC100B01F065FB41EC100B10BD0E
:1039C00000000000000000709FED050B10B553ECE7
:1039D000102B51EC100B01F055FB41EC100B10BDFE
:1039E0000000000000000010027CC16832B1826853
:1039F000521CB2FBF1F301FB132282604268521C9D
:103A0000B2FBF1F301FB132141608268914201D1C5
:103A1000012100E000210174704710B50C460246F8
:103A20004FF0FF3300F01FF870B991681068405CE8
:103A3000207000201074D2E90201401CB0FBF1F3A9
:103A400001FB130000239060184610BD70B50546B9
:103A50000C461420FCF780FC05600246C46000F0B0
:103A600019F8104670BD017C29B9D0E901108142D6
:103A700001D1012070470020704710B5037C4FF042
:103A8000FF322BB9D0E90023D154FFF7ADFF00225C
:103A9000104610BD0021416081600174704782B002
:103AA000CDE9000121F0004001909DED000B02B036
:103AB00051EC100B70470000B8B0FDF7ADFCFEF7FD
:103AC00017FDFEF737FC4B4849494FF4E136002417
:103AD0000160C0E901640C25C460C0E9044584614B
:103AE000C461FEF777FA08B172B6FEE74148424971
:103AF00044300160C0E90164C460C0E904458461E8
:103B0000C461FEF767FA08B172B6FEE7FEF7E0FBA4
:103B100038483A49443801604FF41651C0E901145D
:103B2000C460C0E904458461C461FEF753FA08B17A
:103B300072B6FEE700F09CFD314C1C2231496063F7
:103B40006846FCF78DFD0021684600F072F82D49AB
:103B5000E0601C221C3107A8FCF782FD002107A8A9
:103B600000F067F8274920611C2238310EA8FCF7C5
:103B700077FD00210EA800F05CF8224960611C224C
:103B8000543115A8FCF76CFD002115A800F051F880
:103B90001C49A0611C2270311CA8FCF761FD0021AA
:103BA0001CA800F046F81749E0611C228C3123A8BC
:103BB000FCF756FD002123A800F03BF811492062D4
:103BC0001C22A8312AA8FCF74BFD00212AA800F0EE
:103BD00030F80C4960621C22C43131A8FCF740FD6A
:103BE000002131A800F025F8A06200F01DF8FEE7E2
:103BF000004400408C0100200014014000100140EE
:103C0000000000206C57000801460020842900D0E5
:103C1000C81C70470A21B0FBF1F010B500B90120B3
:103C200000F0DAFB002010BD10B500F0B5FC00205C
:103C300010BD7FB50D4604464169B0F9080081B159
:103C4000A16971B1FFF7E0FFD4E905128DE8070023
:103C5000D4E900102B46226900F089FE039004B0DD
:103C600070BDFFF7D1FF03A9CDE90001208A2B46E3
:103C700082B2D4E9001000F04DFE012801D00020EE
:103C8000EDE70398EBE710B541EC100B43EC112B7B
:103C9000FEF7B2FF51EC100B10BD00002DE9F04112
:103CA000184C0F460546E6682068001D00F096FA9D
:103CB00038B9206890F82C10012088402169814390
:103CC0002161681C07D137B12168BDE8F0410E4879
:103CD000091D00F0D3BA20683544B542456021681B
:103CE00005D2A06BBDE8F041091D00F0AFBA606BD2
:103CF000091D00F0ABFAA06A854200D2A562BDE8BA
:103D0000F081000048000020540600202DE9F04119
:103D1000054600F0BFFA2E4CA068401CA060206849
:103D20002C4F10B1606940B32DE02560A0680128D8
:103D300029D1002606EB860007EB800000F078FA18
:103D4000761C072EF6D323488C3000F071FA2148F8
:103D5000A03000F06DFA1F48B43000F069FA1D4839
:103D6000C83000F065FA1B48DC3000F061FA1948F1
:103D70008C3060631430A06305E02068E96AC06A93
:103D8000884200D82560606A401C6062E96A0120B0
:103D9000226988401043206101EB810007EB80001D
:103DA000291D00F06BFA00F095FA606900280CD02C
:103DB0002068E96AC06A884207D207494FF08050FC
:103DC0000860BFF34F8FBFF36F8FBDE8F081000035
:103DD000480000207805002004ED00E010B50446FE
:103DE00090F8510058B101280CD002280FD0502073
:103DF00080F31188BFF34F8FBFF36F8FFEE7206B07
:103E000000F07CFA2046BDE8104000F077BA10BD03
:103E100010484FF47051420706D0C01D0D4920F0E4
:103E20000700411AC1F570510B4A00230144C2E951
:103E300000030839183A21F0070111604B600B604C
:103E40000B1AC0E9001393604FF0004053605061BB
:103E500070470000680600209C000020144E154C9E
:103E6000A6F1C8074FF08058DFF84C9012E000BF71
:103E700000F010FAF068C568281D00F0AFF9A068DE
:103E8000401EA0606068401E606000F023FA284673
:103E9000FFF7A4FF60680028EAD138680128F9D943
:103EA000C9F80080BFF34F8FBFF36F8FF2E70000B8
:103EB000400600204800002004ED00E02DE9F04716
:103EC0009A46DDE9098481466FF00303206B03EB1A
:103ED00082021044089E20F00707780707D0502080
:103EE00080F31188BFF34F8FBFF36F8FFEE700257C
:103EF00061B1002023180A5C83F834200A5C12B1F7
:103F0000401C1028F6D384F8435001E084F8345064
:103F1000072E00D30626E662C4E91165201D00F0D5
:103F200092F904F1180000F08EF92461C6F107003F
:103F30006462A061E56484F85050524649463846B0
:103F400000F0CAF82060B8F1000F01D0C8F80040B6
:103F5000BDE8F08730B5114900E011460A68824299
:103F6000FBD34B685C18844203D140681844486016
:103F7000084643681C18944209D1084C183C246830
:103F8000A24209D052681A4442600A68126802606C
:103F9000814200D0086030BD0460F9E79C00002039
:103FA0000648416B096829B1416BC968C96849680D
:103FB000816270474FF0FF31FAE7000048000020AF
:103FC00008484068401C4FF0500080F3118804D02E
:103FD000BFF34F8FBFF36F8FFEE7BFF34F8FBFF37A
:103FE0006F8FFEE7A40000200346002012B1994322
:103FF00002D070470B42FCD0012070472DE9F04100
:104000000546002700F0FEFA324E306808B9FFF787
:10401000FFFE706905424ED1C5B3083568070ED062
:1040200005F00700C0F108000544680707D05020DC
:1040300080F31188BFF34F8FBFF36F8FFEE72DB36F
:104040007068854237D82348183001460C6801E073
:1040500020460C466168A94202D221680029F7D1A6
:1040600031688C4227D00768216801606068083792
:10407000411B10290FD96019420708D0502080F346
:104080001188BFF34F8FBFF36F8FFEE713E04160DE
:104090006560FFF75FFF61687068401A7060B26822
:1040A000904200D2B060706901430020C4E9000171
:1040B000F068401CF06000F0F9FC780707D0502051
:1040C00080F31188BFF34F8FBFF36F8FFEE7384641
:1040D000BDE8F0818400002010B5031F4FF080740C
:1040E0001C601B1F21F001011960191F044B0B609C
:1040F00014390A60091F6FF0020244380A6010BDCB
:10410000C13F000800B52DED048B83B041EC190BC5
:1041100001F0F8F841EC180B18EE100A18EE901A9E
:104120008DED008B002818BF0120084320F00040CF
:10413000C0F17F6000F1E040C00F14D019EE101AFA
:1041400019EE900A8DED009B002918BF012108434C
:1041500020F00040C0F17F6000F1E040C00F04BFDC
:104160000120FCF734FB51EC180B03B0BDEC048BC1
:1041700000BD000070B50C46064600F08BF8154DEA
:104180002868C06C80B92968012081F850005CB1B2
:1041900001212046FFF782FD0F494FF08050086053
:1041A000BFF34F8FBFF36F8F00F094F800F072F8F9
:1041B0002868C46C002034B116B12968C86402E0D4
:1041C0002A68611ED164296881F8500000F082F8E5
:1041D000204670BD4800002004ED00E0D0E9013227
:1041E00001699A60D0E901235A604A68824201D18C
:1041F00082684A60002202610868401E0860086800
:1042000070470000044908680A688069D26A096832
:10421000C2F107028A61704748000020034B036027
:1042200003F154000860802010607047DC02002019
:1042300000F108014FF0FF32C0E90112C1600161D5
:1042400000210160704700210161704730B50B68A3
:104250005A1C02D000F1080202E0026904E0224682
:10426000546825689D42FAD953684B6099608A600A
:10427000516008610168491C016030BD42684A60B4
:1042800093688B6093685960916008610168491C6C
:1042900001607047502080F31188BFF34F8FBFF348
:1042A0006F8F0A494868401C486001280CD10848B3
:1042B000006810F0FF0F07D0502080F31188BFF383
:1042C0004F8FBFF36F8FFEE770470000A400002000
:1042D00004ED00E00849486828B1401E486001D15B
:1042E00080F311887047502080F31188BFF34F8FFF
:1042F000BFF36F8FFEE70000A400002070B5002818
:104300002AD0164DA0F1080460686969084207D1F7
:10431000502080F31188BFF34F8FBFF36F8FFEE7FC
:1043200022683AB1502080F31188BFF34F8FBFF35A
:104330006F8FFEE78843606000F064F96068696829
:10434000084468602046FFF705FE2869401C286184
:10435000BDE8704000F0AABB70BD000084000020E2
:104360004FF0E02000210161816105496422096864
:10437000B1FBF2F1491E4161072101617047000064
:104380003800002010B5FBF7C3FF114910280ED3E9
:1043900000F1E02090F8F0030A78904207D2502014
:1043A00080F31188BFF34F8FBFF36F8FFEE709488B
:1043B0000068896800F4E060884207D9502080F3E3
:1043C0001188BFF34F8FBFF36F8FFEE710BD000062
:1043D000A40000200CED00E010B5020014D00F483E
:1043E000006B38B1502080F31188BFF34F8FBFF3BB
:1043F0006F8FFEE700F006F900211046FFF74EFC34
:1044000000F054FB002807D105494FF080500860A8
:10441000BFF34F8FBFF36F8F10BD00004800002027
:1044200004ED00E02DE9F0418846040015D0FFF7C7
:10443000A9FF5020EFF3118680F31188BFF34F8F4F
:10444000BFF36F8F94F85000022184F85010E16C94
:10445000491CE164012808D025E0502080F3118830
:10446000BFF34F8FBFF36F8FFEE7A06A38B15020C4
:1044700080F31188BFF34F8FBFF36F8FFEE7144DAA
:10448000286B012798B104F118011248FFF7F6FED6
:10449000E06A2968C96A884205D9B8F1000F01D0DD
:1044A000C8F80070EF6186F31188BDE8F081201D27
:1044B000FFF794FEE16A2A6907FA01F010432861C8
:1044C00001EB81000349B43901EB8000211DDDE7D8
:1044D000480000202C06002010B51446030011D01F
:1044E0001048026BB2B1026841F00041916101686D
:1044F00018461831FFF7C2FE2046BDE810400121E2
:10450000FFF7CCBB502080F31188BFF34F8FBFF370
:104510006F8FFEE7502080F31188BFF34F8FBFF3FA
:104520006F8FFEE74800002070B5194E326BFAB16C
:1045300041F000410160C46814B3FFF74FFE201D35
:10454000FFF74CFEE16A0125326905FA01F01043DC
:10455000306101EB81000F4901EB8000211DFFF765
:104560008DFEE06A3168C96A884200D9F56170BD84
:10457000502080F31188BFF34F8FBFF36F8FFEE79A
:10458000502080F31188BFF34F8FBFF36F8FFEE78A
:10459000480000207805002010B586B00024039460
:1045A00005AA04A903A80494FFF738FEDDE9030176
:1045B0000094CDE9011000230EA11048059A00F0E7
:1045C000D6F90F490028C86211D0502080F3118815
:1045D000BFF34F8FBFF36F8F4FF0FF308862012022
:1045E0004861CC6006B0BDE8104000F019B906B0D3
:1045F00010BD000049444C45000000005D3E00082D
:10460000480000200248016B491C0163704700000C
:10461000480000201448016B11B10121C1617047AD
:104620000021C1610169B1FA81F1C1F11F0101EB02
:1046300081020E4951F822306BB101EB820101F188
:1046400008034A6852684A609A4201D152684A6037
:10465000D16801607047502080F31188BFF34F8FFD
:10466000BFF36F8FFEE700004800002078050020B0
:1046700070B51C20FFF7C2FC040005D00025201DEA
:104680002560FFF7D5FD2576204670BD2DE9F04168
:104690000027884604000AD05FEA18600FD0502037
:1046A00080F31188BFF34F8FBFF36F8FFEE7502069
:1046B00080F31188BFF34F8FBFF36F8FFEE7261D86
:1046C00004F10C05FFF79EFF2168F06841EA08013C
:1046D000216017E0D0E9001601F07F425301236802
:1046E00021F07F4102D40B4203D10AE031EA0303F7
:1046F00007D1D20100D50F43216841F00071FFF7C7
:1047000013FF3046A842E5D12068B843206000F08E
:10471000CDF92068BDE8F0812DE9F0479A46DDF833
:10472000209090460D4604004FF0000709D0280E57
:104730000FD0502080F31188BFF34F8FBFF36F8FDE
:10474000FEE7502080F31188BFF34F8FBFF36F8FC8
:10475000FEE71DB100F036F940B112E0502080F3C1
:104760001188BFF34F8FBFF36F8FFEE7B9F1000FD2
:1047700007D0502080F31188BFF34F8FBFF36F8FA6
:10478000FEE7FFF73FFF2668524629463046FFF70F
:104790002BFC30B1B8F1000F1AD02068A84320607C
:1047A00016E0B9F1000F13D0B8F1000F01D04FF0AF
:1047B0008077BAF1000F01D047F0806745EA070122
:1047C0004A46201DFFF788FE00F070F918B10AE094
:1047D00000F06CF91FE011494FF080500860BFF302
:1047E0004F8FBFF36F8FFFF70DFD0646800110D48A
:1047F000FFF750FD2668524629463046FFF7F4FB86
:1048000028B1B8F1000F02D02068A8432060FFF75C
:1048100061FD26F07F463046BDE8F08704ED00E0FC
:104820001CB537480168374A914207D1502080F3C0
:104830001188BFF34F8FBFF36F8FFEE700683149D8
:10484000491E884207D1502080F31188BFF34F8F53
:10485000BFF36F8FFEE72C4908780190FF200870A6
:1048600008788DF800009DF800009DF8002000F009
:10487000F000904207D0502080F31188BFF34F8F93
:10488000BFF36F8FFEE79DF80000204C00F0500052
:1048900020700720A06005E09DF8002052008DF8F0
:1048A0000020401E9DF800201206F5D4A0600328C9
:1048B00007D0502080F31188BFF34F8FBFF36F8F65
:1048C000FEE74FF44070A060019808700C4820305B
:1048D000016841F470010160016841F070410160BC
:1048E000FFF73EFD00206060FBF7DAFC0848016836
:1048F00041F040410160FBF7BFFC00201CBD0000FF
:1049000000ED00E071C20F4100E400E0A4000020CF
:1049100034EF00E02DE9FF5F8346DDE90E8799461D
:1049200016468A469000FFF769FB05001CD054200C
:10493000FFF764FB040014D00020256384F85100C5
:10494000CDE90240CDE900874B46324651465846F4
:10495000FFF7B4FA2046FFF7D9F9012004B0BDE80B
:10496000F09F2846FFF7CAFC4FF0FF30F6E7F0B59E
:1049700085B0DDE90B640A9DA6B1DCB15427009730
:104980002663022684F85160002604AFCDE9024672
:10499000CDE90057FFF792FA2046FFF7B7F90498E0
:1049A00005B0F0BD502080F31188BFF34F8FBFF3E7
:1049B0006F8FFEE7502080F31188BFF34F8FBFF356
:1049C0006F8FFEE70548416919B1006B18B10020EF
:1049D0007047012070470220704700004800002007
:1049E0002DE9F0412F4C0026206B28B1A069401C16
:1049F000A0613046BDE8F081E5686D1CE56013D12B
:104A0000606B006838B1502080F31188BFF34F8F7E
:104A1000BFF36F8FFEE7606BA16B6163A063206AD9
:104A2000401C2062FFF7BCFAA06ADFF87C80854258
:104A300009D3606B0068A0B1606BC068C768786814
:104A4000854211D2A0622068C06A00EB800158F84C
:104A50002100012800D90126E0690028C9D00126DB
:104A6000C7E74FF0FF30EDE7381DFFF7B7FBB86A37
:104A700018B107F11800FFF7B1FBF96A01202269AC
:104A800088401043206101EB810108EB8100391D52
:104A9000FFF7F4FBF86A2168C96A8842C9D3012686
:104AA000C7E7000048000020780500202DE9F04706
:104AB0002C4D00242746286B38B1FFF7EBFB286B01
:104AC000401E2863286B40B146E0502080F31188D7
:104AD000BFF34F8FBFF36F8FFEE7A968224E01200F
:104AE000D1B3A6F1B40980463068E8B1F068C46873
:104AF00004F11800FFF772FB201DFFF76FFBE06A5F
:104B00002A6908FA00F11143296100EB800109EBE1
:104B10008100211DFFF7B2FBE06A2968C96A88425B
:104B2000E2D3C5F81C80DFE70CB1FFF739FAAC69B6
:104B300044B14646FFF754FF00B1EE61641EF9D15F
:104B40000020A861E86938B10849012738070860E2
:104B5000BFF34F8FBFF36F8FFFF7BCFB3846BDE845
:104B6000F0870000480000202C06002004ED00E043
:104B700010B500290AD00878002807D005487844E5
:104B8000FBF7E4FF002801D0002010BD0248784464
:104B900010BD00003A0E0000320E000081F000410E
:104BA000704780F00040704721F00041704720F0CE
:104BB0000040704710B591EA030F48BF83F00043EF
:104BC00000F17484841A71EB030C05D2121943EBC3
:104BD0000C03001B61EB0C01DFF824E14FEA1154D8
:104BE000A4EB135C1EEA430F18BF9EEA445F73D028
:104BF00023EA0E03DCF1200E21EA045143F4801372
:104C000032D322FA0CFE10EB0E0023FA0CFE41EB1D
:104C10000E01CCF1200E03FA0EFE10EB0E0051F146
:104C20000001B1F5801FCCF1200E32D201EB04510E
:104C300012FA0EF2BDE8104058BF7047401C38BF52
:104C40005FEA420218BF7047002814BF20F001003D
:104C500041F100014FEA410313F5001F38BF7047CF
:104C6000A1F1C04100F006BB012A43EB0302ACF105
:104C7000200CDCF11F0E32BF4FF0000E23FA0CF3B4
:104C800010EB030041EB0451B4EB115FD0D0A1EB6A
:104C9000045101F5801149085FEA300001EB04512D
:104CA0000ED350F1000038BF12FA0EFE08D1BDE855
:104CB0001040C9E7401C38BF5FEA4202CAD1C3E7CF
:104CC000BDE810404FEA410313F5001F38BF70479D
:104CD000A1F1C04100F0CEBA9EEA445F08D011EACB
:104CE0005E0FBDE8104004BF01F000410020704796
:104CF000BDE8104070B500F06FFA00BF64FBBE3E27
:104D00000000E0FF02494FF0000000F0B6BC00BF19
:104D10000000F87F491058BFC1F140415B1058BFF7
:104D2000C3F140438B42EFF3008070472DE9C0414F
:104D300030B4DFF8A0C23CEA111418BF3CEA1314E7
:104D400000F0EC8081EA03051CEA111444EAD574F2
:104D500018BF1CEA131500F0C780A4EB05044FF040
:104D6000004545EAC12145EAC32341EA505143EADF
:104D7000525304F17F74994204F500344FEAC02085
:104D80004FEAC22208BF904200F09C804FEA1365B0
:104D90000FF24016765D4FEA134506FB05F7C7F1A3
:104DA000807706FB07F74FEAD737A7FB0368764201
:104DB000C8F58038A7FB06CE38BFA8F1010807FB6D
:104DC00008E64FF0000EA6FB028CE6FB03CEDCF1FA
:104DD000000CCEF1004E38BFAEF1010EA6FB0C5810
:104DE0004FF000074FF00005E6FB0E87A1FB08C659
:104DF000A0FB07CE16EB0E0645F10005E1FB0765AB
:104E000015F1E04E7EBFA4F580345FEA46066D41A1
:104E100016F1800745F100054FEA17274FEA0666AD
:104E200047EA0567A6F1DE46B6F1805F4FEA152531
:104E30001FD9384624F0010C05EBC471BCF1FE6F9C
:104E400001EB0C1102D8F0BCBDE8008124425CBF2C
:104E500001F5801E9EEAC47F02D4F0BCBDE800814B
:104E6000244238D4F0BCA1F1C041BDE8004100F0BB
:104E700001BA4FEAD22242EA43524FEAD323A7FBB8
:104E800002864FEAD02040EA415007FB03661EEA43
:104E90000E0F4FEAD12105FB026658BFA6EB005664
:104EA000B6EB00564FEA520E4EEAC37E18EB0E0EDA
:104EB00056EB530EBDD518EB02085E417F1C55F131
:104EC0000005B6E74FF480154FF000074FF00006DD
:104ED0004FF00008ADE7F0BC4FF0000001F1C04119
:104EE00001F00041BDE8008111EA0C1F0CEA131526
:104EF00000D00CE013EA0C1F00F025804FF00000FA
:104F0000F0BC81EA030101F00041BDE80081F0BC82
:104F1000BDE8004181EA030100F0ACB9F0BCBDE896
:104F2000004170B500F058F9097EFC3E00F007B86A
:104F300081EA03014FF0000001F00041704781EA6F
:104F4000030100F097B9F0BCBDE800414FF000004C
:104F500021497047FFFDFBF9F7F5F4F2F0EEEDEBB8
:104F6000E9E8E6E4E3E1E0DEDDDBDAD8D7D5D4D367
:104F7000D1D0CFCDCCCBCAC8C7C6C5C4C2C1C0BFB3
:104F8000BEBDBCBBBAB9B8B7B6B5B4B3B2B1B0AFB9
:104F9000AEADACABAAA9A8A8A7A6A5A4A3A3A2A19D
:104FA000A09F9F9E9D9C9C9B9A9999989797969558
:104FB00095949393929191908F8F8E8E8D8C8C8BF4
:104FC0008B8A89898888878786858584848383827C
:104FD000828181800000FF070000F87F10F000420E
:104FE00048BF4042B0FA80F310FA03F10AD0C3F18F
:104FF0001D0303F580634FEA415002EB035202EBBD
:10500000D12170474FF000007047000051EA030CB7
:1050100017D41CF5801F58BFBCF5801F00F1068017
:10502000994218BF704708BF9042704707D711F5E3
:10503000801F58BF13F5801F19D4994270478942C9
:1050400070471CF5801F08D5BCF5801FF7D58B4233
:1050500018BF704708BF824270474FF4001C1CEB1A
:10506000410F38BF1CEB430F01D28B42704770B524
:1050700000F0B2F8922449004FF000514FF08053F5
:10508000FFF748BEDFF848C170B51CEA111E1EBF0D
:105090001CEA13159EEA0C0F95EA0C0F00F06F80C6
:1050A00081EA030423EA4C134EEAD47E21EA4C1130
:1050B00041F4801143F48013AE44A1FB024CA0FBE9
:1050C0000365AEF17F7E361955EB0C05A1FB034C51
:1050D0004CF10003A0FB021C16EB0C06654153F1DA
:1050E0000003094218BF46F0010613F4007F0BD1FC
:1050F0004FEA03314FEA0530340341EA155140EAE3
:1051000016506FF003020AE04FEAC3214FEAC520B0
:10511000F40241EA555140EA56506FF0020202EBA8
:105120002E4201EB025585EACE710AD05FEA440CAB
:1051300018BF24F0004450F1000041F1000120EAC2
:10514000D47040F2FE7C624500D270BDA84214BF0C
:105150004FF080444FF04044002E08BF0024BEF1C1
:10516000806FA8BFA1F1C041BDE8704080F282808D
:105170004FF0000001F1C04101F0004170479EEA8C
:105180000C0F0CEA131518BF95EA0C0F06D04FF060
:10519000000081EA030E0EF0004170BD00F01CF823
:1051A0008900013E00F007B800F009B84FEA430C4F
:1051B0005FEA5C5C08D081EA030100F05BB84FEA6B
:1051C000410C5FEA5C5CF6D14FF00000014970478A
:1051D0000000FF070000F87F0EF1020E2EF0030E14
:1051E0005EF8046B364205D4012A43EB030515F53E
:1051F000001F12D8012841EB010C1CF5001F0CD830
:105200000ED14FEAD17C15F5001F0CEB4C0C0CF1C4
:10521000020C08BF4CEBD37C04E04FF0080C01E01B
:105220004FEAD37C0CEB4C0526FA05F606F0070690
:10523000B6F1040C06D20EEB860CBDE870404CF0C3
:10524000010C6047DFE80CF0090B02024FF000414F
:105250004FF00000A1F5002170BD1946104601284D
:1052600051EB010418BFD4F5001484BF002001F0F5
:10527000004170BD0808A0F500114FEA31017047E8
:1052800053EA010C17D41CF5801F58BFBCF5801FD2
:1052900000F106808B4218BF704708BF82427047FA
:1052A00007D713F5801F58BF11F5801F19D48B4203
:1052B00070479B4270471CF5801F08D5BCF5801FC6
:1052C000F7D5994218BF704708BF904270474FF416
:1052D000001C1CEB430F38BF1CEB410F01D299425D
:1052E00070470FB40CBC03BCFFF7C1BE91EA030FBB
:1052F00010B581F000413FF565AC83F0004300F04C
:10530000D5B800002DE9F04101F5801CBCF5001F67
:10531000C0F2A9804FEA115C21EA0C510CF1FD0C9E
:1053200041F480115FEA5C0C0CF5C07C01D34000B5
:10533000494130A4890241EA905187028E0E0A0C3D
:10534000A45D04FB04F602FB06F6C6F14046A4FB8E
:105350000662F60D46EA422606FB06F4A4FB01238C
:105360005242C3F1404338BF5B1EA6FB02420024F9
:10537000E6FB0324D20B42EA4446A6FB0623A1FB2C
:1053800002E2A3FB07E4E3FB61426442C2F1404E48
:1053900038BFAEF1010EA6FB04234FF00002E6FB7E
:1053A0000E32A2FB03463400E2FB6264A1FB06E678
:1053B000A4FB07E8E4FB61687642C8F1405838BFB7
:1053C000A8F10108A2FB06E4A3FB08E5E2FB685490
:1053D000A1FB05E6A7FB04E8E1FB648618F12005C4
:1053E00056F10006A809A8F11B08B10908F03F080A
:1053F000B8F10A0F40EA86601CD901EB0C51BDE8F8
:10540000F08100BFFCF5EEE8E2DDD8D3CFCBC7C317
:10541000C0BDB9B6B4B1AEACA9A7A5A3A19F9D9BD1
:105420009A9896959392908F8D8C8B898887868594
:1054300084838281A0FB006800FB01F208EB420834
:10544000B8EB872807D5341858EB0104D5D5401C94
:1054500051F10001D1E7341A78EB0104CDD4401E9C
:1054600071F10001C9E75FEA4C0C5FEA9C5C0DD169
:1054700005D34FF0000001F00041BDE8F081BDE828
:10548000F04170B5FFF7A8FE6DDBFFBEBDE8F0414F
:105490004FF00000004970470000F87F10B591EA16
:1054A000030F48BF83F000433FF58CAB841A71EBC8
:1054B000030C07D212198CF0004C43EB0C03001BB9
:1054C00061EB0C01DFF8A4E14FEA1154A4EB135C8B
:1054D0001EEA430F18BF9EEA445F00F0B08023EA43
:1054E0006E03524221EA0451C3EB6E0338BF5B1EC8
:1054F000DCF1200E25D322FA0CFE10EB0E0043FA4D
:105500000CFE41EB0E01CCF1200E03FA0EFE10EB67
:105510000E0051F10001CCF1200E29D412FA0EF246
:1055200001EB0451BDE8104058BF7047401C1CBF40
:10553000B2F1004F704700280CBF491C20F0010059
:10554000704712EB020E43EB030218BF4FF0010E3F
:105550004EEA4202ACF1200CDCF11E0E54D943FAA3
:105560000CFE10EB0E0051F1FF31CCF11E0ED5D523
:105570000EF1010E12FA0EFE404141EB010101EB6A
:10558000445C5FEA5C5C10D910EBDE7001EB045107
:1055900038BFBEF1004FBDE8104018BF704700286B
:1055A0000CBF491C20F00100704730D24FEAD42CC8
:1055B00011F5001124F400641BD0B1FA81F20B3A0A
:1055C000A41AA41ED2F12003914030FA03F3194328
:1055D000904001EBCC71002C01EB0451BDE8104070
:1055E000A8BF704701F1C0414FF0000001F0004139
:1055F0007047B0FA80F310FA03F100D110BDE41A3D
:10560000173C4805C90AE4E701EB045110BD4910F5
:1056100001EB0451BDE810404FEA300002E04FF0CA
:10562000000170474A0008BF0042F8D0B2F5001FE1
:1056300028BF704701F000414FF0000070479EEA1C
:10564000445F07D011EA5E0FBDE8104004BF00219F
:1056500000207047BDE8104070B5FFF7BDFD00BFEA
:1056600040DFF63E83F00041104670470000E0FF47
:105670004FF04070E1EE100A70470CF00F03092B59
:1056800008BF082000F059800A2B0BD0082B18BF48
:10569000704708BF1CF0400F0AD04FF000004FF0D9
:1056A000000170471CF0400F18BF4FF000407047DA
:1056B0001CF0100F08D020F0704300F07F4242EA47
:1056C000D3014FEA4370704700F0604021F07F4201
:1056D00042EA000201F07F4040EA727070474FF0EA
:1056E000FF0C4CF4E06C1CEA11531CBF9CEA030C49
:1056F0009445C2BFDA4201EB02517047002B0DD036
:10570000BCF1000F0FD0002A01F00041A4BF41F00E
:10571000E04141F07F614FF00000704701F000412F
:105720004FF00000704750EA01334FF09B0C18BF58
:105730004CF0806C7FF4E6AA70471CF4801F11D0F7
:105740001CF4E02F03D06FEACC31490070474FF0D2
:105750004050EFF3008222F0704242EA000282F3EE
:10576000008870474FF00000704700004C59000857
:10577000AD240008000000000000000080000000D0
:105780000000000000000000585900083D260008F5
:105790000000000000000000800000000000000089
:1057A00000000000405900088D270008000000009C
:1057B0000000000080000000000000000000000069
:1057C000645900088D260008000000000000000059
:1057D0008000000000000000000000007059000878
:1057E00041270008000000000000000080000000C9
:1057F00000000000000000008C590008DD260008B1
:105800000000000000000000800000000000000018
:105810000000000030590008712600080000000058
:1058200000000000800000000000000000000000F8
:105830007C590008DD27000800000000000000007F
:1058400080000000000000000000000000000000D8
:105850000000000001020304060708090000000020
:10586000010203043031323334353637383941429E
:1058700043444546403058003031323334353637B2
:10588000383961626364656640307800040000085E
:1058900000000000000000020001000010000000F5
:1058A000000000000000F03F000000000000F83F92
:1058B00000000000000000000000004003B8E23FCC
:1058C000000000000000000006D0CF43EBFD4C3E7E
:1058D000033333333333E33FFFAB6FDBB66DDB3F73
:1058E0004D268F515555D53F01411DA96074D13FBB
:1058F00065DBC9934A86CD3FEF4E454A287ECA3FB5
:105900003E5555555555C53F93BDBE166CC166BF36
:105910002CDE25AF6A56113FF16BD2C541BDBBBE2F
:10592000D0A4BE726937663E00000000000000008F
:105930005461726566614473313862323000000030
:1059400054617265666150630000000064656661C1
:10595000756C745461736B00546172656661426F5B
:1059600074616F0054617265666145737000000078
:105970005461726566614C64720000005461726526
:1059800066615365727669646F7200005461726576
:105990006661477073000000C85A000800000020CC
:1059A000B0000000D0010008785B0008B0000020C3
:1059B00018480000EC01000810010000430000003E
:1059C000F8FFFFFF00404040404040404040414120
:1059D00041414140404040404040404040404040C4
:1059E000404040404005020202020202020202025E
:1059F000020202020220202020202020202020025B
:105A000002020202020290909090909010101010EA
:105A10001010101010101010101010101010101086
:105A2000020202020202888888888888080808081A
:105A300008080808080808080808080808080808E6
:105A4000020202024000000000000000000000000E
:105A50000000000000000000000000000000000046
:105A60000000000000000000000000000000000036
:105A70000000000000000000000000000000000026
:105A80000000000000000000000000000000000016
:105A90000000000000000000000000000000000006
:105AA00000000000000000000000000000000000F6
:105AB00000000000000000000000000000000000E6
:105AC00000000000000000000000000000000000D6
:105AD00000000000000000000000000000000000C6
